:020000040800F2
:100000000000032055240008550B0008570B00087A
:10001000590B00085B0B00085D0B00080000000096
:100020000000000000000000000000005F0B00085E
:10003000610B000800000000630B0008650B00085E
:10004000A5240008A5240008A5240008A52400086C
:10005000A5240008A5240008A5240008A52400085C
:10006000A5240008A5240008A5240008BD0900084F
:10007000A5240008A5240008A5240008A52400083C
:10008000A5240008CD090008A5240008A52400081F
:10009000A5240008A5240008A5240008A52400081C
:1000A000A5240008A5240008A5240008A52400080C
:1000B000A52400081D080008A5240008A5240008A0
:1000C000A5240008A5240008A5240008A5240008EC
:1000D000A5240008A5240008A5240008A5240008DC
:1000E000A5240008A5240008A5240008A5240008CC
:1000F000A5240008A5240008A5240008A5240008BC
:10010000A5240008A5240008A5240008A5240008AB
:10011000A5240008A5240008A5240008A52400089B
:10012000A5240008A5240008A5240008A52400088B
:10013000A5240008A5240008A5240008A52400087B
:10014000A5240008A5240008A5240008A52400086B
:10015000A5240008A5240008A5240008A52400085B
:10016000A5240008A5240008A5240008A52400084B
:10017000A5240008A5240008A5240008000000000C
:10018000A5240008A5240008A5240008AD0900083E
:10019000A5240008A5240008A5240008A52400081B
:0C01A0000000000000000000A524000882
:1001B00010B5054C237833B9044B13B10448AFF3A1
:1001C00000800123237010BD70000020000000009B
:1001D000842D00080C4B43B10C480D4910B5AFF30A
:1001E00000800C48036823B910BD0A48036833B97E
:1001F0007047094B002BF7D0BDE810401847064B5D
:10020000002BF5D0184700BF00000000842D000827
:1002100074000020700000200000000000000000BA
:1002200001F0FF01102A2BDB10F0070F08D010F8A7
:10023000013B013A8B422DD010F0070F42B3F6D1AB
:10024000F0B441EA012141EA014122F007047FF0C4
:1002500000070023F0E80256083C85EA010586EA1B
:10026000010685FA47F5A3FA87F586FA47F6A5FA57
:1002700087F68EB9EED1F0BC01F0FF0102F0070263
:1002800032B110F8013B013A83EA010313B1F8D10E
:100290000020704701387047002D06BF35460338EF
:1002A000073815F0010F07D1013015F4807F02BF28
:1002B000013015F4C03F0130F0BC0138704700BF79
:1002C00053B94AB9002908BF00281CBF4FF0FF31BD
:1002D0004FF0FF3000F07AB9ADF1080C6DE904CEB3
:1002E00000F006F8DDF804E0DDE9022304B0704711
:1002F0002DE9F0478C460D460446089E002B51D14F
:100300008A4217466DD9B2FA82FEBEF1000F0BD0B9
:10031000CEF1200C01FA0EF520FA0CFC02FA0EF7D1
:100320004CEA050C00FA0EF44FEA174A250CBCFB08
:10033000FAF81FFA87F90AFB18CC45EA0C4508FBC6
:1003400009F3AB420AD9ED1908F1FF3280F023819D
:10035000AB4240F22081A8F102083D44ED1AA4B25C
:10036000B5FBFAF00AFB105544EA054400FB09F915
:10037000A14509D9E41900F1FF3380F00A81A145B4
:1003800040F2078102383C44A4EB090440EA0840EB
:100390000021002E61D024FA0EF400233460736033
:1003A000BDE8F0878B4207D9002E54D0002186E8A3
:1003B00021000846BDE8F087B3FA83F1002940F038
:1003C0008E80AB4202D3824200F2FA80841A65EB3F
:1003D00003050120AC46002E3FD086E81010BDE892
:1003E000F08712B90127B7FBF2F7B7FA87FEBEF123
:1003F000000F34D1EB1B3A0C1FFA87FC0121B3FB31
:10040000F2F8250C02FB183345EA03450CFB08F310
:10041000AB4207D9ED1908F1FF3002D2AB4200F22E
:10042000D1808046ED1AA3B2B5FBF2F002FB105565
:1004300043EA05440CFB00FCA44507D9E41900F18C
:10044000FF3302D2A44500F2B8801846A4EB0C0496
:1004500040EA08409DE731463046BDE8F087CEF1DE
:10046000200405FA0EF307FA0EF720FA04F83A0C06
:1004700025FA04F448EA0308B4FBF2F14FEA184500
:1004800002FB11441FFA87FC45EA044501FB0CF30B
:10049000AB4200FA0EF409D9ED1901F1FF3080F0FA
:1004A0008A80AB4240F2878002393D44EB1A1FFA42
:1004B00088F5B3FBF2F002FB103345EA034500FB7D
:1004C0000CF3AB4207D9ED1900F1FF386FD2AB4204
:1004D0006DD902383D44EB1A40EA01418FE7C1F182
:1004E000200722FA07F88B4005FA01F448EA0303D3
:1004F00020FA07FE4FEA134CFD404EEA040EB5FB0E
:10050000FCF94FEA1E440CFB19551FFA83F844EA24
:10051000054509FB08F4AC4202FA01F200FA01FABF
:1005200008D9ED1809F1FF3043D2AC4241D9A9F105
:1005300002091D442D1B1FFA8EFEB5FBFCF00CFBBF
:1005400010554EEA054400FB08F8A04507D9E41809
:1005500000F1FF3529D2A04527D902381C4440EAD2
:100560000940A4EB0804A0FB02894C45C6464D4651
:1005700015D312D056B1BAEB0E0364EB050404FA9E
:1005800007F7CB401F43CC40376074600021BDE8C3
:10059000F0871846F8E69046E0E6C245EAD2B8EBA6
:1005A000020E69EB03050138E4E72846D7E7404629
:1005B00091E78146BEE7014678E702383C4445E7CB
:1005C000084608E7A8F102083D442BE7704700BF42
:1005D00030B595B03022002108A801F089FF002431
:1005E0000394049405940694079401941C4B1A6C8C
:1005F00042F080521A641B6C03F080530193019BFC
:100600000294184B1A6842F440421A601B6803F4C3
:1006100040430293029B012308934FF480330993D4
:1006200002250E954FF480030F9306231093A82301
:10063000119312950423139308A800F007FC0F23CD
:100640000393049505944FF4A05306934FF48053FD
:100650000793052103A800F041FE15B030BD00BF8F
:10066000003802400070004008B501F009FBFFF7B8
:10067000AFFF00F039F800F095F800F0EBF800F06B
:10068000D5F90AE000F0E0F8124BA3FB00239B0928
:100690004FF47A7202FB13037BB100F0D5F80E4BD6
:1006A000A3FB0023DB0803EB83035A009042E9D14C
:1006B00000F0E8F900F00AFAE4E7084800F08EF9E3
:1006C0004FF48041064800F0DFFF012001F004FBF9
:1006D000E3E700BFD34D6210CDCCCCCC9C2D0008FD
:1006E00000140240704700002DE9F0478EB000244E
:1006F0000094294B1A6B42F010021A631A6B02F035
:1007000010020092009A01941A6B42F020021A63C0
:100710001A6B02F020020192019A02941A6B42F0C5
:1007200001021A631A6B02F001020292029A039408
:100730001A6B42F080021A631B6B03F08003039371
:10074000039B01250A954FF40069CDF824904FF0E2
:10075000020ACDF82CA003260C96DFF8448009A9E4
:10076000404600F091FE05954FF480470497CDF880
:1007700018A00796094E04A9304600F085FE2246CF
:100780004946404600F07AFF2A463946304600F096
:1007900075FF0EB0BDE8F08700380240001402403B
:1007A0000010024010B500F04FFE0B4C0B4B2360C5
:1007B00040F2E733E3600A4BA3FB00239B0C5B0092
:1007C000013B63600023A3602361204600F022FB0D
:1007D000204600F0E7F910BDC421002000040040CD
:1007E00083DE1B4300B583B0002301930A4B1A6CD0
:1007F00042F002021A641B6C03F002030193019B96
:10080000022211461D2001F0BFF91D2001F0EEF972
:1008100003B05DF804FB00BF0038024008B5024891
:1008200000F0D5F908BD00BFC4210020044B83426D
:1008300000D07047034A136801331360F9E700BF23
:10084000C42100208C000020014B1868704700BFB5
:100850008C00002008B50B480B4B03604FF4E133CC
:100860004360002383610C2242614FF40042C26165
:100870000361C360836001F079FB00B908BDFFF735
:1008800031FFFBE7C4220020007C00400268414B9E
:100890009A4200D070472DE9F04788B00446002501
:1008A000009503F5DE331A6B42F010021A631A6BDF
:1008B00002F010020092009A01951A6C42F0004278
:1008C0001A641A6C02F000420192019A02951A6BA6
:1008D00042F400121A631B6B03F400130293029B91
:1008E000082307934FF00208CDF8108003270397E1
:1008F000CDF81480069703A9274800F0C5FD274EC0
:10090000274B33604FF0206AC6F804A0B5607562CB
:10091000B5614FF48069C6F810904FF48073F361AD
:100920007561F5604FF400333362304600F032FFFA
:100930006663B4631B4E1C4B3360C6F804A04023AF
:10094000B3607562B561C6F81090F5617561F560C8
:100950003562304600F01EFF2663B463532001F079
:1009600045F93A463946532001F00EF90B2001F0C3
:100970003DF93A4641460B2001F006F9112001F0FD
:1009800035F93A464146112001F0FEF808B0BDE8BD
:10099000F08700BF007C00400010024004220020CD
:1009A000A0600240642200201060024008B50248A6
:1009B00001F0A6FC08BD00BFC422002008B5024813
:1009C00000F0E2FF08BD00BF6422002008B5024825
:1009D00000F0DAFF08BD00BF042200200FB470B59C
:1009E000C2B046AB53F8045B1E4641934FF480748B
:1009F0002246002101A801F07BFD33462A4621460C
:100A000001A801F0A9FD0546002405E001AB195D30
:100A1000054800F082F80134AC42F7DB42B0BDE893
:100A2000704004B0704700BFAC11002008B5102220
:100A30000549064801F010FB054800F065F8054837
:100A400000F062F808BD00BF90000020C422002022
:100A5000A0010020AC110020074B834200D070475A
:100A600010B5002405E0054B195D054800F055F868
:100A700001340F2CF7DD10BDC422002090000020AF
:100A8000A001002038B50D4B1B685D68D5F110053D
:100A900000D138BD0A4801F033FB002405E0094BC2
:100AA000195D094800F039F80134AC42F7DB102237
:100AB0000449034801F0D0FAEBE700BF042200200C
:100AC000C422002090000020A001002070B50B4B34
:100AD0001E685B68F61A16B13546002406E070BD44
:100AE000064800F02AF8064B18550134AC42F7DBF3
:100AF000B2B20349034801F069FA70BDAC1100209D
:100B0000A0000020C42200200023436003604FF4B3
:100B1000805241F20803C250704710B40268531C5F
:100B2000036041F20803C458B2FBF4F304FB13233F
:100B3000184401725DF8044B70474268531C4360CF
:100B400041F20803C158B2FBF1F301FB132318442F
:100B5000007A70477047FEE7FEE7FEE7FEE7704762
:100B60007047704708B501F0A5F808BD82B00021B4
:100B700000910B4B5A6C42F480425A645A6C02F456
:100B800080420092009A01911A6C42F080521A64DD
:100B90001B6C03F080530193019B02B0704700BFB0
:100BA000003802400268D36843F00103D360026852
:100BB000936803F00703062B03D0136843F0010387
:100BC000136000207047704770477047704710B53A
:100BD000044603681A6912F0020F11D0DA6812F0A5
:100BE000020F0DD06FF002021A6101230377036830
:100BF0009B6913F0030F70D0FFF7E6FF0023237704
:100C000023681A6912F0040F12D0DA6812F0040F88
:100C10000ED06FF004021A610223237723689B69C8
:100C200013F4407F5FD02046FFF7CEFF00232377E9
:100C300023681A6912F0080F12D0DA6812F0080F50
:100C40000ED06FF008021A61042323772368DB6952
:100C500013F0030F4ED02046FFF7B6FF0023237793
:100C600023681A6912F0100F12D0DA6812F0100F10
:100C70000ED06FF010021A61082323772368DB6916
:100C800013F4407F3DD02046FFF79EFF00232377DB
:100C900023681A6912F0010F03D0DA6812F0010F0D
:100CA00036D123681A6912F0800F03D0DA6812F087
:100CB000800F34D123681A6912F0400F03D0DA682C
:100CC00012F0400F32D123681A6912F0200F03D0BE
:100CD000DA6812F0200F30D110BDFFF774FF204604
:100CE000FFF773FF8AE72046FFF76DFF2046FFF707
:100CF0006CFF9BE72046FFF766FF2046FFF765FF86
:100D0000ACE72046FFF75FFF2046FFF75EFFBDE739
:100D10006FF001021A612046FFF788FDC1E76FF00E
:100D200080021A61204600F08FF8C3E76FF040029E
:100D30001A612046FFF74AFFC5E76FF020021A61EB
:100D4000204600F080F8C7E70368314A904212D08D
:100D5000B0F1804F0FD0A2F57C4290420BD002F54B
:100D60008062904207D002F58062904203D002F583
:100D70007842904203D123F070034A681343244A17
:100D800090422AD0B0F1804F27D0A2F57C42904209
:100D900023D002F5806290421FD002F5806290421B
:100DA0001BD002F57842904217D002F57052904263
:100DB00013D002F5806290420FD002F5806290421B
:100DC0000BD0A2F59832904207D002F58062904293
:100DD00003D002F58062904203D123F44073CA68C5
:100DE000134323F080034A69134303608B68C36293
:100DF0000B688362064B984206D003F580639842E5
:100E000002D00123436170470B690363F9E700BF18
:100E100000000140A8B110B5044690F83D305BB128
:100E2000022384F83D30211D2068FFF78DFF012348
:100E300084F83D30002010BD80F83C30FFF7D2FC34
:100E4000EEE701207047704770470000002800F06F
:100E5000E48170B582B00446036813F0010F3BD003
:100E6000A74B9B6803F00C03042B2CD0A44B9B686E
:100E700003F00C03082B21D06368B3F5803F4FD0FB
:100E8000B3F5A02F52D09E4B1A6822F480321A601C
:100E90001A6822F480221A606368002B50D000F098
:100EA00015FF0546964B1B6813F4003F14D100F064
:100EB0000DFF401B6428F5D90320B3E1904B5B681C
:100EC00013F4800FD8D08E4B1B6813F4003F03D06F
:100ED0006368002B00F0A381236813F0020F55D044
:100EE000874B9B6813F00C0F3ED0854B9B6803F03B
:100EF0000C03082B33D0E368002B68D00122814B10
:100F00001A6000F0E3FE05467D4B1B6813F0020FEC
:100F100054D100F0DBFE401B0228F5D9032081E10B
:100F2000774A136843F480331360B5E7744B1A684B
:100F300042F480221A601A6842F480321A60ABE7E9
:100F400000F0C4FE05466E4B1B6813F4003FC3D08F
:100F500000F0BCFE401B6428F5D9032062E1684B19
:100F60005B6813F4800FC6D1654B1B6813F0020F4A
:100F700004D0E368012B01D0012053E1604A1368DB
:100F800023F0F803216943EAC1031360236813F0D7
:100F9000080F40D0636963B301225B4B1A6000F015
:100FA00095FE0546564B5B6F13F0020F33D100F0F0
:100FB0008DFE401B0228F5D9032033E1504A136807
:100FC00023F0F803216943EAC1031360DEE700223E
:100FD0004C4B1A6000F07AFE0546494B1B6813F033
:100FE000020FD3D000F072FE401B0228F5D9032077
:100FF00018E10022444B1A6000F068FE0546404BA1
:101000005B6F13F0020F06D000F060FE401B022859
:10101000F5D9032006E1236813F0040F79D0384B8B
:101020001B6C13F0805F33D100230193344B1A6C97
:1010300042F080521A641B6C03F080530193019BB1
:101040000125324B1B6813F4807F23D0A368012B4A
:1010500034D0052B38D02A4B1A6F22F001021A67C0
:101060001A6F22F004021A67A368002B36D000F032
:101070002DFE0646224B1B6F13F0020F48D100F0E5
:1010800025FE801B41F288339842F3D90320C9E042
:101090000025D6E71D4A136843F48073136000F0FF
:1010A00015FE0646194B1B6813F4807FCED100F065
:1010B0000DFE801B0228F5D90320B3E0104A136F00
:1010C00043F001031367CFE70D4B1A6F42F00402A0
:1010D0001A671A6F42F001021A67C5E700F0F6FDC1
:1010E0000646074B1B6F13F0020F11D000F0EEFD08
:1010F000801B41F288339842F3D9032092E000BF6D
:101100000038024000004742800E47420070004015
:10111000EDB9A369002B00F08480454A926802F083
:101120000C02082A51D0022B17D00022414B1A6022
:1011300000F0CCFD04463E4B1B6813F0007F42D00C
:1011400000F0C4FD001B0228F5D903206AE0384AEC
:10115000136C23F080531364DBE70022354B1A60D5
:1011600000F0B4FD0546324B1B6813F0007F06D03B
:1011700000F0ACFD401B0228F5D9032052E0E369E2
:10118000226A1343626A43EA8213A26A5208013A4E
:1011900043EA0243E26A43EA0263254A53600122BA
:1011A000244B1A6000F092FD0446214B1B6813F09B
:1011B000007F06D100F08AFD001B0228F5D903202C
:1011C00030E000202EE000202CE0012B2CD0184B2A
:1011D0005B6803F48001E269914201D0012021E0C3
:1011E00003F03F02216A8A4201D001201AE0616ABD
:1011F00047F6C0721A408A4201D0012012E003F47F
:101200004032A16A8A4201D001200BE003F07063F2
:10121000E26A93420AD0012004E0012070470120D5
:1012200000E0002002B070BD0120FBE70020F9E7DC
:101230000038024060004742F8B5254B9B6803F038
:101240000C03042B41D0082B01D02248F8BD204BC1
:101250005A6802F03F025B6813F4800F12D01C4BF7
:101260005968C1F3881100231B48A1FB0001FFF757
:1012700027F8174B5B68C3F3014301335B00B0FBF6
:10128000F3F0F8BD124B5B68C3F388131E460027CA
:101290005C010025E41A65EB0705A90141EA9461A8
:1012A000A001001B61EB0501CB0043EA5073C400B1
:1012B000A01943EB07018B0243EA905384022046B6
:1012C00019460023FEF7FCFFD3E70348F8BD00BF33
:1012D000003802400024F400001BB700002800F092
:1012E0009E8070B50446504B1B6803F00F038B4281
:1012F00009D2CBB24C4A1370136803F00F03994222
:1013000001D0012070BD236813F0020F17D013F035
:10131000040F04D0454A936843F4E0539360236874
:1013200013F0080F04D0414A936843F4604393607C
:101330003E4A936823F0F003A068034393600D4690
:10134000236813F0010F32D06368012B21D09A1E5D
:10135000012A25D9354A126812F0020F61D03349AB
:101360008A6822F0030213438B6000F0AFFC06464C
:101370002E4B9B6803F00C036268B3EB820F16D010
:1013800000F0A4FC801B41F288339842F0D903207E
:1013900070BD264A126812F4003FE0D1012070BDF2
:1013A000224A126812F0007FD9D1012070BD1E4B75
:1013B0001B6803F00F039D4209D2EAB21A4B1A7060
:1013C0001B6803F00F039D4201D0012070BD23680C
:1013D00013F0040F06D0154A936823F4E053E16834
:1013E0000B439360236813F0080F07D00F4A9368EC
:1013F00023F46043216943EAC1039360FFF71CFFB4
:101400000A4B9B68C3F30313094AD35CD840094BCA
:101410001860094B186800F00DFC002070BD012019
:101420007047012070BD00BF003C02400038024000
:10143000B02D00080800002004000020014B1868AF
:10144000704700BF0800002008B5FFF7F7FF044B06
:101450009B68C3F38223034AD35CD84008BD00BF16
:1014600000380240C02D000808B5FFF7E7FF044B25
:101470009B68C3F34233034AD35CD84008BD00BF26
:1014800000380240C02D000800230F2B00F2EB8033
:10149000F0B583B050E04FEAD30C0CF1080C50F8D3
:1014A0002C5003F0070E4FEA8E0E0F2606FA0EF6AA
:1014B00025EA06050E6906FA0EF6354340F82C506B
:1014C0006FE0092600E0002606FA0EF635430232E8
:1014D000654E46F82250654A1568E24305EA020661
:1014E0004F6817F4803F01D044EA05065F4D2E6037
:1014F0006D6802EA05064F6817F4003F01D044EA20
:1015000005065A4D6E60AD6802EA05064F6817F48D
:10151000801F01D044EA0506544DAE60ED682A40B4
:101520004E6816F4001F01D044EA05024F4CE260F9
:1015300001330F2B00F2958001229A400C68144071
:10154000A242F5D14D686E1E012E03D9112D01D096
:10155000122D15D185684FEA430E032707FA0EF7BF
:1015600025EA0705CE6806FA0EF63543856045681C
:1015700025EA02024D68C5F300159D402A434260EA
:10158000C6685F000322BA40D24316408D68BD4052
:101590002E43C6604D68022D3FF47DAF122D3FF4FF
:1015A0007AAF05682A404D6805F00305BD402A431F
:1015B00002604A6812F0805FBAD0002201922C4A81
:1015C000556C45F480455564526C02F4804201929A
:1015D000019A9A08961C244D55F8265003F00306EC
:1015E0004FEA860E0F2606FA0EF625EA0605214F6B
:1015F000B8423FF468AF204EB04222D006F5806674
:10160000B04220D006F58066B0421ED006F5806656
:10161000B0421CD006F58066B0421AD006F580664E
:10162000B04218D006F58066B04216D006F5806646
:10163000B04214D006F58066B0423FF442AF0A26AD
:1016400042E7012640E702263EE703263CE7042660
:101650003AE7052638E7062636E7072634E7082660
:1016600032E703B0F0BD704700380140003C014054
:1016700000380240000002400004024012B9090490
:101680008161704781617047436931EA030301D08A
:101690008161704709048161704730B405682C6826
:1016A00024F480242C60046863608368402B05D098
:1016B000036899600368DA6030BC704703689A6019
:1016C0000368D960F8E700000268D3B2103B0B4909
:1016D000A1FB03131B090A49C95CC165032B06D88A
:1016E00022F47F7222F003028265806D704722F43B
:1016F0007F7222F0030204328265F6E7ABAAAAAA3F
:10170000A82D0008836A826992B9012B0AD01BB107
:10171000022B01D000207047C36A13F0807F2CD1C8
:1017200000207047C36AB3F1C07F28D00020704703
:10173000B2F5005F05D0022B29D9032B15D000206C
:101740007047032B03D8DFE803F01C041C0A0020B9
:101750007047C36A13F0807F15D100207047C36AB9
:10176000B3F1C07F11D000207047C36A13F0807FAF
:1017700001D00120704700207047012070470120F0
:1017800070470120704701207047012070470120F9
:101790007047000070B5044600F098FA002C5DD048
:1017A0000546002384F83430022384F8353022685B
:1017B000136823F00103136023681A6812F0010F05
:1017C0000AD000F083FA401B0528F5D92023636571
:1017D000032084F8350070BD1A6821491140626801
:1017E000A0680243E0680243206902436069024343
:1017F000A0690243E0690243206A02430A43616A26
:10180000042916D01A602668756925F00705636AF1
:101810001D43042B12D075612046FFF755FFE26D82
:101820003F239340836000206065012384F83530B6
:1018300070BDE16A206B01430A43E3E7A36A1D43DD
:10184000E36A002BE7D02046FFF75CFF0028E2D0D8
:1018500040236365012084F8350070BD012070BD10
:101860003F8010F038B5856D90F83440012C2CD0B5
:10187000012480F8344090F83540E4B2012C04D0C3
:10188000002380F83430022038BD0446022084F85A
:101890003500002060652046FFF7FFFEE26D3F2324
:1018A0009340AB602268136843F016031360236C07
:1018B00023B12268136843F0080313602268136899
:1018C00043F001031360002038BD022038BD70B51D
:1018D0000446866D00F0FAF994F83530DBB2022B3D
:1018E00006D080236365002384F83430012070BD66
:1018F00005462268136823F01603136022685369B3
:1019000023F080035361236CE3B12268136823F052
:10191000080313602268136823F00103136023682F
:101920001B6813F0010F11D000F0D0F9401B0528FF
:10193000F5D920236365002384F83430032084F82C
:10194000350070BDA36C002BDFD1E3E7E26D3F23D0
:101950009340B360002084F83400012384F83530CC
:1019600070BD90F83530DBB2022B03D08023436585
:1019700001207047052380F835300268136823F092
:101980000103136000207047F0B583B004460023C4
:101990000193724B1D68724BA3FB0535AD0A876D31
:1019A0003E68C26D082393401E4210D003681A6837
:1019B00012F0040F0BD01A6822F004021A60C26DF4
:1019C00008239340BB60436D43F001034365E26D20
:1019D000012393401E4209D02268526912F0800F01
:1019E00004D0BB60636D43F002036365E26D0423C2
:1019F00093401E4209D02268126812F0020F04D0F0
:101A0000BB60636D43F004036365E26D1023934094
:101A10001E4224D02268126812F0080F1FD0BB604B
:101A200023681A6812F4802F0DD01B6813F4002F5E
:101A300004D1236C9BB12046984710E0A36C73B18E
:101A4000204698470BE01A6812F4807F03D11A6889
:101A500022F008021A60236C0BB120469847E26D11
:101A6000202393401E4255D02268126812F0100FB6
:101A700050D0BB6094F83530DBB2052B0ED0236814
:101A80001A6812F4802F33D01B6813F4002F2AD168
:101A9000636C002B3ED0204698473BE022681368D9
:101AA00023F0160313602268536923F08003536107
:101AB000236CA3B12268136823F008031360E26D5E
:101AC0003F239340BB60002384F83430012384F823
:101AD0003530236D002B3FD0204698473CE0A36C67
:101AE000002BE7D1EBE7E36BA3B12046984711E069
:101AF0001A6812F4807F09D11A6822F010021A6065
:101B0000002384F83430012384F83530E36B0BB1C3
:101B100020469847636DFBB1636D13F0010F17D03A
:101B2000052384F835302268136823F0010313601D
:101B3000019B013301939D4204D323681B6813F07A
:101B4000010FF5D1002384F83430012384F83530B7
:101B5000E36C0BB12046984703B0F0BD08000020AD
:101B6000B5814E1B074AD36823F4E0631B041B0CAA
:101B7000000200F4E060184340F0BF6040F4003021
:101B8000D060704700ED00E030B4164BDB68C3F363
:101B90000223C3F10704042C28BF04241D1D062DB5
:101BA00017D9033B012505FA04F4013C2140994073
:101BB00005FA03F3013B1340194300280BDB09012D
:101BC000C9B200F1604000F5614080F8001330BCFC
:101BD00070470023E6E700F00F000901C9B2024B8D
:101BE0001954F4E700ED00E014ED00E0002808DBF4
:101BF000420900F01F00012303FA00F0014B43F8F3
:101C00002200704700E100E00138B0F1807F0AD285
:101C1000064B5860F021064A82F823100020986095
:101C200007221A6070470120704700BF10E000E0F3
:101C300000ED00E010B504460E4B18784FF47A73AF
:101C4000B3FBF0F30C4A1068B0FBF3F0FFF7DCFFD6
:101C500068B90F2C01D9012010BD002221464FF098
:101C6000FF30FFF791FF054B1C60002010BD0120E5
:101C700010BD00BF0000002008000020040000206C
:101C800008B50B4B1A6842F400721A601A6842F4E5
:101C900080621A601A6842F480721A600320FFF7AB
:101CA00061FF0020FFF7C6FFFEF760FF002008BDC0
:101CB000003C0240034A1168034B1B780B4413603D
:101CC000704700BF0423002000000020014B18686B
:101CD000704700BF0423002038B50446FFF7F6FF25
:101CE0000546B4F1FF3F02D0044B1B781C44FFF7BC
:101CF000EDFF401B8442FAD838BD00BF0000002031
:101D00000268D36823F0C003D360202380F8393001
:101D100070470268D36823F49073D36002685369F4
:101D200023F001035361202380F83A30704790F884
:101D30003930DBB2212B01D0022070478368B3F524
:101D4000805F17D00268036A591C01621B785360D8
:101D5000C38C9BB2013B9BB2C384DBB90268D368DE
:101D600023F08003D3600268D36843F04003D3605C
:101D700000207047036A02681B88C3F3080353609E
:101D800003691BB9036A02330362E1E7036A0133A3
:101D90000362DDE700207047F8B504460268136966
:101DA00023F44053C1680B431361836802691343F2
:101DB00042691343C26913430168CA6822F4164298
:101DC00022F00C021343CB600268536923F4407382
:101DD00081690B435361C369B3F5004F34D0036885
:101DE000604A934200F0928002F58062934200F0D4
:101DF0008D80FFF729FB25680021061841EB0107BC
:101E000036184F41FB0043EA5673F20016461F4650
:101E100063689A009B0F80197941FEF751FA524C82
:101E2000A4FB00325109642202FB11021301323378
:101E3000A4FB03235B0903F0F00202EB011203F0A1
:101E40000F031344AB60F8BD0368464A934230D099
:101E500002F5806293422CD0FFF7F6FA2568002144
:101E6000061841EB010736184F41FB0043EA567351
:101E7000F20016461F466268002392185B418019E3
:101E80007941FEF71DFA384CA4FB00325109642257
:101E900002FB1102D3003233A4FB03235B095A0077
:101EA00002F4F87202EB011203F007031344AB6073
:101EB000F8BDFFF7D9FA25680021061841EB0107A4
:101EC00036184F41FB0043EA5673F20016461F4690
:101ED0006268002392185B4180197941FEF7F0F99E
:101EE000214CA4FB00325109642202FB1102D300F1
:101EF0003233A4FB03235B095A0002F4F87202EBAD
:101F0000011203F007031344AB60F8BDFFF7ACFA0E
:101F100025680021061841EB010736184F41FB00E8
:101F200043EA5673F20016461F4663689A009B0FF9
:101F300080197941FEF7C4F90B4CA4FB003251091A
:101F4000642202FB110213013233A4FB03235B0959
:101F500003F0F00202EB011203F00F031344AB6035
:101F6000F8BD00BF001001401F85EB5158B310B5FC
:101F7000044690F839300BB3242384F839302268B2
:101F8000D36823F40053D3602046FFF705FF22688F
:101F9000136923F4904313612268536923F02A03E1
:101FA00053612268D36843F40053D3600020E06398
:101FB000202384F8393084F83A3010BD80F8383066
:101FC000FEF764FCD8E701207047000038B590F8B0
:101FD0003940E4B2202C01D0022038BD002931D094
:101FE000002A31D090F83830012B01D1022038BDC1
:101FF00013460446012280F8382001628384C3849A
:102000000025C563212280F83920026B0F48D06378
:10201000226B0F481064226B0E48D064226B15654A
:1020200022680432206BFFF71DFC23686FF040022A
:102030001A6084F838502268536943F08003536172
:10204000284638BD012038BD012038BD6721000871
:10205000B3210008A722000830B583B090F83A40B9
:10206000E4B2202C02D0022003B030BD00293DD0C4
:10207000002A3DD090F83830012B01D10220F3E73F
:1020800013460A460446012180F83810826283858F
:102090000025C563222180F83A10416B1548C863BA
:1020A000616B15480864616B1448C864616B0D6509
:1020B00021680431606BFFF7D5FB019523681A682E
:1020C00001925A680192019A84F83850DA6842F411
:1020D0008072DA602268536943F001035361226819
:1020E000536943F0400353612846BDE70120BBE735
:1020F0000120B9E7BD2100089B220008A7220008A3
:1021000010B5044601684A6990F83930DBB2212BDA
:102110000AD021684A6902F0400294F83A30DBB2F2
:10212000222B11D0002010BD02F08002002AF0D036
:102130004B6923F080034B61006B08B1FFF7C7FBCD
:102140002046FFF7DDFDE4E7002AEBD04B6923F0E2
:1021500040034B61606B08B1FFF7B9FB2046FFF706
:10216000D8FDDFE7704708B5836B0268126812F488
:10217000807F0CD10022DA8419684A6922F080023B
:102180004A611A68D36843F04003D36008BD18461B
:10219000FFF7E8FF08BD08B50168CB6823F04003EE
:1021A000CB60202380F83930FFF7DCFF002008BD2A
:1021B000704708B5806BFFF7FBFF08BD08B5836B60
:1021C0000268126812F4807F13D10022DA85196840
:1021D000CA6822F48072CA6019684A6922F0010252
:1021E0004A6119684A6922F040024A61202283F854
:1021F0003A201846FEF730FC08BD08B590F83A3092
:10220000DBB2222B01D0022008BD8368B3F5805FCA
:102210000FD003690BBB836A5A1C82620268526842
:102220001A70C38D9BB2013B9BB2C385F3B10020F2
:1022300008BD826A036943B903685B68C3F3080396
:102240001380836A02338362EBE703685B68DBB267
:102250001380836A01338362E3E7826A531C8362DB
:1022600003685B6803F07F031370DAE70268D368E2
:1022700023F02003D3600268D36823F48073D36013
:102280000268536923F001035361202380F83A3038
:10229000FEF7E2FB002008BD704708B5806BFFF732
:1022A000FBFF08BD704710B5846B23685A6994F82A
:1022B0003930DBB2212B10D023685A6902F040027A
:1022C00094F83A30DBB2222B11D0E36B43F01003C9
:1022D000E3632046FFF7E6FF10BD02F08002002A0C
:1022E000EAD00023E3842046FFF70AFDE4E7002A52
:1022F000EBD00023E3852046FFF70BFDE5E7000068
:1023000010B5044602681368D168526913F00F00D3
:1023100005D113F0200F02D011F0200F56D1002864
:102320006AD012F0010202D111F4907F64D013F050
:10233000010F06D011F4807F03D0E06B40F0010064
:10234000E06313F0040F04D01AB1E06B40F0020018
:10235000E06313F0020F04D01AB1E06B40F0040008
:10236000E06313F0080F07D011F0200F00D11AB16D
:10237000E26B42F00802E263E26B002A48D013F0FD
:10238000200F02D011F0200F24D123685B6903F0E5
:102390004003E26B12F0080F00D13BB32046FFF779
:1023A000B8FC23685A6912F0400F1BD05A6922F01A
:1023B00040025A61636B8BB11A4A1A65606BFFF772
:1023C000D0FA28B3606B036D984710BD2046FFF725
:1023D00014FF10BD2046FFF710FFD6E72046FFF799
:1023E00061FF10BD2046FFF75DFF10BD2046FFF7DF
:1023F00059FF0023E36310BD13F0800F02D011F0EA
:10240000800F06D113F0400F02D011F0400F04D11D
:1024100010BD2046FFF78BFC10BD2046FFF7BBFE2A
:10242000F6E700BF2924000808B5806B0023C385A8
:10243000C384FFF737FF08BD054BD3F8882042F46B
:102440007002C3F888204FF000629A60704700BFA6
:1024500000ED00E0DFF834D0002103E00C4B5B58C6
:10246000435004310B480C4B42189A42F6D30B4AA6
:1024700002E0002342F8043B094B9A42F9D3FFF7EC
:10248000DBFF00F011F8FEF7EFF8704700000320C3
:102490000C2E0008000000207000002070000020BA
:1024A0000C230020FEE7000070B50D4E0D4CA41B60
:1024B000A4100025A54209D10B4E0C4C00F062FC83
:1024C000A41BA4100025A54205D170BD56F82530E7
:1024D00098470135EEE756F8253098470135F2E781
:1024E000042E0008042E0008042E0008082E000800
:1024F00002440346934200D1704703F8011BF9E7F9
:1025000030B5141E05469BB0184605DA8B232B60A8
:102510004FF0FF301BB030BD4FF40273ADF80C30FC
:1025200014BF04F1FF332346029305934FF6FF7364
:1025300000910491ADF80E3002461E9B6946284674
:1025400000F074F8431CBCBF8B232B60002CE1D03F
:10255000009B00221A70DDE707B5009313460A4678
:10256000014603480068FFF7CBFF03B05DF804FBAA
:102570000C0000202DE9F0478E689E4282460C46F2
:102580009146984635D88A8912F4906F31D02568E3
:1025900009696F1A6569022305EB450595FBF3F59B
:1025A00008F101033B449D4238BF1D46530531D518
:1025B000294600F039FB064650B90C23CAF8003012
:1025C000A38943F04003A3814FF0FF30BDE8F087BB
:1025D0003A46216900F0B4FAA38923F4906343F0EA
:1025E0008003A381266165613E44ED1B2660A560E2
:1025F0004646464528BF464632464946206800F0D2
:10260000AAFAA3689B1BA36023681E4426600020CF
:10261000BDE8F0872A4600F065FB06460028E1D1B8
:102620002169504600F0B2FAC7E700002DE9F04FEB
:102630009DB0804603938B891C060D4616460FD528
:102640000B696BB9402100F0EFFA2860286128B9C6
:102650000C23C8F800304FF0FF30C5E040236B6119
:102660000023099320238DF8293030238DF82A3058
:102670004FF0010B37463C4614F8013B002B3CD190
:10268000B7EB060A0BD05346324629464046FFF7C1
:1026900071FF013000F0A380099B534409933B78FC
:1026A000002B00F09C8000234FF0FF32049307932F
:1026B000059206938DF853301A93052221785048DD
:1026C000FDF7AEFD671C049BD8B9D90644BF202294
:1026D0008DF853201A0744BF2B228DF853202278FF
:1026E0002A2A16D0079A00210A20274601343B786F
:1026F000303B092B51D9C9B111E0252BC0D0274659
:10270000B9E73F4A801A0BFA00F0184304903C46A0
:10271000D3E7039A111D12680391002A01DB079287
:1027200004E0524243F00203079204933B782E2BBD
:102730000ED17B782A2B07F1010132D1039B1A1DA0
:102740001B680392002BB8BF4FF0FF33023705938D
:102750002C4C397803222046FDF762FD38B1402326
:10276000001B03FA00F0049B0343049301373978FC
:1027700025488DF8281006227E1CFDF751FD002803
:1027800035D0224BFBB9039B073323F007030833F3
:102790000393099B4B4409936CE700FB0232012130
:1027A000A3E70023059318460A240F4601313A781F
:1027B000303A092A03D9002BCAD00590C8E704FB98
:1027C00000200123F1E703AB00932A46104B04A934
:1027D0004046AFF30080B0F1FF3F8146D9D1AB89CD
:1027E0005B063FF538AF09981DB0BDE8F08F03AB2D
:1027F00000932A46064B04A9404600F081F8EAE718
:10280000C82D0008CE2D0008D22D000800000000C1
:10281000752500082DE9F04791461F468A680B6927
:10282000DDF820809342B8BF1346C9F8003091F814
:10283000432006460C4612B10133C9F80030236824
:10284000990642BFD9F800300233C9F80030256834
:1028500015F0060507D104F1190AE368D9F800203C
:102860009B1A9D4229DB94F843302268003318BF3D
:10287000012392062ED404F1430239463046C04764
:10288000013021D02368E568D9F8002003F0060361
:10289000042B08BFAD1AA36822690CBF25EAE575B1
:1028A00000259342C4BF9B1AED184FF000091A345B
:1028B0004D451BD10020BDE8F08701235246394623
:1028C0003046C047013003D14FF0FF30BDE8F087FC
:1028D0000135C2E7E1185A1C302081F84300224438
:1028E00094F8451082F843100233C4E701232246CE
:1028F00039463046C0470130E6D009F10109D7E733
:102900002DE9F04317460A7E85B06E2A98460646A2
:102910000C460C9B01F1430E00F0BC801AD8632AD0
:102920002ED00AD8002A00F0C880582A00F08A80E9
:1029300004F1420584F842202AE0642A01D0692A81
:10294000F6D121681A6811F0800F23D0111D19608B
:10295000136827E0732A00F0B48008D86F2A2AD0C1
:10296000702AE5D10A6842F020020A6003E0752A65
:1029700021D0782ADCD1782284F845206E4964E0A1
:102980001A6801F14205111D1960136884F842307C
:102990000123A3E011F0400F02F104011960D7D028
:1029A000B2F90030002B03DA2D225B4284F8432079
:1029B00062490A2217E02068196810F0800F03D0DE
:1029C000081D18600B6806E010F0400F01F10400CC
:1029D0001860F7D00B8859496F2A14BF0A220822C1
:1029E000002084F843006568A560002DC0F29C803B
:1029F000206820F004002060002B3FD1002D40F023
:102A000095807546082A0BD12368DA0708D5236913
:102A100062689A42DEBF302305F8013C05F1FF35BC
:102A2000AEEB05032361CDF800803B4603AA2146A7
:102A30003046FFF7EFFE013055D14FF0FF3005B0C3
:102A4000BDE8F08381F845203C492268186812F0FF
:102A5000800F00F104051D6001D0036802E05506F7
:102A6000FBD50388D00744BF42F0200222601BB987
:102A7000226822F0200222601022B1E77546B3FBE3
:102A8000F2F002FB1033CB5C05F8013D0346002851
:102A9000F5D1B7E708681A68496910F0800F04D0CB
:102AA000101D18601368196007E010F0400F02F164
:102AB000040018601368F6D019800023236175465E
:102AC000B1E71A68111D196015686268002128466F
:102AD000FDF7A6FB08B1401B60606368236100231B
:102AE00084F843309FE723692A4639463046C04779
:102AF0000130A2D023689B0707D5002504F11909EE
:102B0000E368039A9B1A9D4205DBE068039B9842A9
:102B1000B8BF184693E701234A4639463046C047B6
:102B200001308AD00135EBE7002BA7D10B7884F870
:102B3000423004F1420565E7EA2D0008D92D00086E
:102B400010B5431E0A44914200D110BD11F8014B4B
:102B500003F8014FF7E7884210B501EB020303D8F1
:102B6000421E99420CD110BD9842F9D28118D21A56
:102B7000D34200D110BD13F8014D01F8014DF7E724
:102B800011F8014B02F8014FEBE7000038B505469C
:102B9000002945D051F8043C0C1F002BB8BFE418A5
:102BA00000F0D6F81F4A1368104633B9636014600A
:102BB0002846BDE8384000F0CCB8A3420CD92168C3
:102BC0006218934204BF1A685B68636004BF5218BE
:102BD00022600460ECE713465A680AB1A242FAD9AF
:102BE00019685818A0420BD1206801445818824235
:102BF0001960DDD1106852685A6001441960D7E746
:102C000002D90C232B60D3E7206821188A4204BF25
:102C100011685268626004BF091821605C60C7E7F0
:102C200038BD00BFB821002070B5CD1C25F00305CC
:102C300008350C2D38BF0C25002D064601DBA942B6
:102C400003D90C233360002070BD00F081F8234AC3
:102C50001468214691B9224C23681BB9304600F014
:102C600067F820602946304600F062F8431C26D100
:102C70000C233360304600F06CF8E4E70B685B1B14
:102C80001AD40B2B0FD90B60CD50CC18304600F066
:102C900060F804F10B00231D20F00700C31A1BD0BD
:102CA0005A42E25070BD8C420DBF63684B6863604E
:102CB000136018BF0C46E9E70C464968CAE7C41C14
:102CC00024F00304A04205D0211A304600F030F869
:102CD0000130CDD02560D9E770BD00BFB8210020FC
:102CE000BC210020F8B5074614460E4621B911460E
:102CF000BDE8F840FFF798BF22B9FFF747FF254628
:102D00002846F8BD00F026F884420FD921463846FF
:102D1000FFF78AFF05460028F2D031462246FFF72A
:102D20000FFF31463846FFF731FFE9E73546E7E761
:102D300038B5064C002305460846236000F014F819
:102D4000431C02D1236803B12B6038BD0823002047
:102D50007047704751F8040C0028A0F10400BCBF74
:102D60000B58C01870470000044A05491368002B2F
:102D700008BF0B461844106018467047C021002059
:102D800010230020F8B500BFF8BC08BC9E46704771
:0C2D9000F8B500BFF8BC08BC9E467047B8
:102D9C0068656C6C6F20776F726C6400000610169F
:102DAC0000061016000000000000000001020304E1
:102DBC00060708090000000001020304232D302B34
:102DCC002000686C4C006566674546470030313220
:102DDC003334353637383941424344454600303177
:102DEC0032333435363738396162636465660000D6
:082DFC00F4D4FF7F0100000088
:042E0400D5010008EC
:042E0800B10100080C
:102E0C0001000000100000000024F400100000205D
:102E1C0000000000000000000000000000000000A6
:102E2C000000000000000000000000000000000096
:102E3C000000000000000000000000000000000086
:102E4C000000000000000000000000000000000076
:102E5C000000000000000000000000000000000066
:102E6C000000000000000000000000000000000056
:040000050800245576
:00000001FF
